:020000040800F2
:10000000584E002001010008D51F0008D11E00082D
:10001000D11F0008F90C00085D2D00080000000049
:100020000000000000000000000000004125000862
:10003000FD0C000800000000412400080128000811
:100040001B0100081B0100081B0100081B01000820
:100050001B0100081B0100081B0100081B01000810
:100060001B0100081B0100081B0100081B01000800
:100070001B0100081B0100081B0100081B010008F0
:100080001B0100081B0100081B0100081B010008E0
:100090001B0100081B0100081B0100081B010008D0
:1000A0001B0100081B0100081B0100081B010008C0
:1000B0001B0100081B0100081B0100081B010008B0
:1000C0001B0100081B0100081B0100081B010008A0
:1000D0001B0100081B0100081B0100081B01000890
:1000E0001B0100081B0100081B010008DFF80CD0F1
:1000F00000F052FB00480047D52F0008584E002062
:100100000648804706480047FEE7FEE7FEE7FEE7B1
:10011000FEE7FEE7FEE7FEE7FEE7FEE775280008DC
:10012000ED0000082DE9F0410024061B254671F181
:10013000000605DA01240027D0EB070067EB010178
:10014000161E73F1000605DA0027D2EB070201251F
:1001500067EB030300F000F986460E4617469C46FF
:10016000AC4204D00025D0EB050E65EB010624B1AE
:100170000020D2EB000760EB030C704631463A4694
:100180006346BDE8F08140EA01039B0703D009E024
:1001900008C9121F08C0042AFAD203E011F8013B73
:1001A00000F8013B521EF9D27047D2B201E000F8CC
:1001B000012B491EFBD270470022F6E710B513460B
:1001C0000A4604461946FFF7F0FF204610BD421CC0
:1001D00010F8011B0029FBD1801A704780EA010248
:1001E00010B502F00043400022D04A001FD0010E9B
:1001F00001EB1261C0F35600C2F3560240F4000056
:1002000042F40002A0FB022000047F39140400D055
:10021000401C50EA124001D44000491EC2B20C06F4
:1002200004EBD010401C4008802A02D003E00020DC
:1002300010BD20F00100002900DA0020184310BD95
:1002400030B480EA010202F0004530F0004221F0B3
:10025000004013D090B1C30DD40DC2F31601C0F30A
:100260001600E41A41F4000140F400027D3491428A
:1002700001D3641C00E04900002C02DA30BC0020ED
:1002800070474FF400000023914201D3891A0343C1
:1002900040084FEA4101F7D151B1914202D14FF0EC
:1002A000004105E002D24FF0010101E06FF00101D1
:1002B00003EBC450284430BC00F07FB8C10F80EA83
:1002C000E0700844CA079623002100F07FB8F0B41C
:1002D000CA17CB0F50405140C61841F100054FEAF4
:1002E000C372314628004FF0960303D0B623F0BC0A
:1002F00000F06CB830460021F9E700F0004220F031
:100300000040C10DC0F3160040F400007F2901DA5F
:1003100000207047962903DCC1F19601C84001E036
:1003200096398840002AF4D04042704730B50B46D9
:10033000014600202022012409E021FA02F59D4215
:1003400005D303FA02F5491B04FA02F52844151EE9
:10035000A2F10102F1DC30BD2DE9F05F054600207D
:1003600092469B4688460646814640241BE0284626
:1003700041464746224600F030FA53465A46C01AD4
:10038000914110D311461846224600F017FA2D1A53
:1003900067EB01084F4622460120002100F00EFACB
:1003A00017EB00094E41201EA4F10104DFDC484692
:1003B00031462A464346BDE8F09F0029A8BF704752
:1003C000401C490008BF20F00100704710B4B0FA8B
:1003D00080FC00FA0CF050EA010404BF10BC704726
:1003E00049B1CCF1200421FA04F411FA0CF118BF40
:1003F000012121430843A3EB0C01CB1D4FEA00610F
:100400004FEA102042BF002010BC704700EBC350E1
:1004100010440029A4BF10BC7047401C490008BF0D
:1004200020F0010010BC70472DE9FE4F804681EAA4
:100430000300C00F0C46009021F0004123F000455E
:10044000B8EB0200A94105D24046214690461C4621
:100450000B46024623F00040104347D0270DC7F358
:100460000A00C3F30A510290401A019040286BDA47
:10047000C3F3130040F4801B0098924620B1002380
:10048000D2EB030A63EB0B0B01985946C0F1400213
:10049000504600F093F906460D4650465946019ADB
:1004A00000F0ABF910EB08006141002487EA11521B
:1004B00084EAE7731A4340D0009A62B3019A012A92
:1004C0004FEA075215DC001B61EB02014FF00042BE
:1004D00002EA0752CDE90042001C41F58011324684
:1004E0002B4600F0ABF903B0BDE8F08F4046214643
:1004F000F9E7001B61EB0201001C41F580130018B5
:100500005B412018A2F5001747EB030140EAD570C4
:10051000B6196D4111E06D084FEA360645EAC0751F
:100520004FEA0752001B61EB0201001C41F58011EC
:1005300049084FEA30000019514132462B4603B0BA
:10054000BDE8F04F00F06BB9009801224000002395
:10055000D0EB020263EBE073009821464FEAE074AF
:10056000B8EB000061EB0401E9E783F000435BE7CF
:1005700081F0004158E72DE9FE4F81EA030404F0C1
:10058000004421F0004100944FF0000B23F00043A1
:1005900050EA01045ED052EA03045BD0C3F30A546C
:1005A000C1F30A552C44A4F2F3340194A0FB025485
:1005B000C1F3130141F48011C3F3130343F4801317
:1005C00001FB024400FB034E840A970A44EA81546B
:1005D00047EA8357A4FB076802958D0A05FB078548
:1005E0004FEA932C04FB0C542705029D4FEA065852
:1005F00047EA1637B5EB08056EEB070C870E920E2F
:1006000047EA811742EA8312A7FB0201B6EB0B010E
:1006100064EB00042B0D43EA0C335E1844EB1C50D2
:10062000DA465146E7FB0201C5F313044FEA0B33E8
:1006300043EA14534FEA0432019C43EA0603A4F14F
:100640000C040294009CCDE900B400F0F7F803B06C
:10065000BDE8F08F00200146F9E72DE9F04D81EA71
:10066000030404F0004B21F0004514464FF0000A4B
:1006700023F0004150EA050220D054EA01021DD0C7
:10068000C5F30A570246C5F31303C1F31300C1F3C0
:100690000A5640F4801543F48013A7EB0608101B9C
:1006A000D64608F2FD3873EB050002D308F10108C5
:1006B00001E092185B41B8F1000F03DA0020014617
:1006C000BDE8F08D00204FF48011064684460EE010
:1006D000171B73EB050705D3121B63EB05030643DA
:1006E0004CEA010C49084FEA300092185B4150EA8D
:1006F0000107EDD152EA030012D082EA040083EA36
:100700000501084305D0101BAB4106D2012200238E
:1007100006E000224FF0004302E06FF001025310A8
:100720001AEB06004CEB085110EB0A0041EB0B01F1
:10073000BDE8F04D00F073B8C1F30A52C1F31301E4
:1007400040F2FF3341F480119A4202DA0020014660
:10075000704740F233439A42A2F2334202DC5242E3
:1007600000F03BB800F02AB830B5041E71F1000467
:1007700004DB4FF00044404264EB0101141E73F1AE
:10078000000405DB1C464FF00043524263EB0403B8
:10079000994208BF904230BD064C074D06E0E06824
:1007A00040F0010394E8070098471034AC42F6D3B8
:1007B000FFF7A0FC6467000884670008202A04DBB8
:1007C000203A00FA02F1002070479140C2F1200364
:1007D00020FA03F3194390407047202A04DB203AA3
:1007E00021FA02F00021704721FA02F3D040C2F151
:1007F00020029140084319467047202A06DBCB1798
:10080000203A41FA02F043EAE07306E041FA02F3CB
:10081000D040C2F12002914008431946704710B5FC
:10082000141E73F1000408DA401C41F10001921813
:100830005B411A4301D120F0010010BD2DE9F04DBC
:1008400092469B4611B1B1FA81F202E0B0FA80F211
:1008500020329046FFF7B2FF04460F4640EA0A00F6
:1008600041EA0B0153465A46084313D0114653EA56
:10087000010019D0C8F140025046FFF7AEFF05460F
:100880000E46504659464246FFF798FF084305D0AA
:10089000012004E020463946BDE8F08D00200543E4
:1008A00046EAE0762C4337430A986305E40AA0EB56
:1008B00008000022FD0A44EA47540A3002D500200D
:1008C0000146E9E7010510196941DDE9084500190C
:1008D0006941BDE8F04DA2E7F0B593B0DDF864C022
:1008E000DDF860C01290119110920F931298C01011
:1008F00040F21441C2F2000103910A88A0EB4200C9
:10090000B1F902205043C0120E90129A0888C0EB31
:10091000221040430013B1F90410484380130D9096
:100920000E980D99014440F62810C2F20000049080
:100930000160006800EB8000803000120C900C9881
:10094000FFF7BCFC0021C4F2C821FFF779FC039932
:10095000024604980F9B1A600268D017B2F5FA326B
:1009600060F100000A920B900A980B9AA0FB00C35A
:1009700000FB023300FB0230B1F910304FEAE37E96
:10098000ACFB03240CFB0E4C00FB03C00892099047
:10099000089A09980A9C0B9BB1F90EE04FEAEE7594
:1009A000A4FB0EC604FB056403FB0E435B0443EA91
:1009B000DC3312EB4C42584108920990089A09988E
:1009C000B1F90C3000EBC300089209900A9C0B9B14
:1009D000A4FB045004FB030004FB0300B1F908E08E
:1009E000B1F90AC04FEAEC76A5FB0C2705FB0675AA
:1009F00000FB0C5C4FEA2C20120A42EA0C624FEA20
:100A0000EE75A4FB0EC604FB056403FB0E431B033B
:100A100043EA1C5312EB0C3258410A920B900A9A8B
:100A20000B9800F50040C988A2FB013200FB0121B0
:100A30004810C9170B910A900A980B99084300288F
:100A40007CD0FFE7119AD2F580114FF0000060EBE7
:100A5000E27006910790069B0798C00740EA530191
:100A60000898099AD0EBC370914140F63542A0FB3B
:100A7000020301FB02310A9A0B9BFFF753FB07911C
:100A8000069040F21442C2F20002B2F91610C817E2
:100A9000069BDDF81CC05B0B43EACC434FEA6C3E7F
:100AA000A1FB03C401FB0E4100FB0311ACFB0304DB
:100AB0000CFB0E4C01FB03C1400E40EAC11049166D
:100AC0000B910A90B2F914C04FEAEC71069BDDF865
:100AD0001CE0ACFB03040CFB0E4C01FB03C1C00C7F
:100AE00040EA4130C9140991089006990798DDF849
:100AF00028C00B9B11EB0C015841DDF820C0099B6D
:100B000011EB0C0143411812090A41EA0361B2F9E1
:100B10001230DA17120142EA137211EB031150413D
:100B20000691079006980799FFF7D1FB0021C4F2C0
:100B3000C861FFF785FB1999086003E01999002047
:100B40000860FFE740F62810C2F200000068A0F538
:100B5000963005901098800340F21442C2F20002D1
:100B6000D18BA0EB0151B2F92000059B00FB1310C3
:100B700000F58040C01392F922105943891292F86F
:100B80001CC003FB0CFC4FF4004303EBEC234B4372
:100B90004FF4001101EBA321B2F91A30594301F5CA
:100BA00000518913484305900598C1134943C91161
:100BB000127E5143A0EB211005900598B0F1FF3F44
:100BC00003DCFFE70020029002E005980290FFE7B7
:100BD000029805900598B0F1C85F04DDFFE74FF07B
:100BE000C850019002E005980190FFE70198059038
:100BF00005980013FFF762FB4FF08941FFF720FBD8
:100C000018990860002013B0F0BD000080B584B0D2
:100C10000290029800F04CF88DF807009DF807004C
:100C2000FF2804D1FFE701208DF80F002EE09DF88A
:100C30000700602804D0FFE702208DF80F0025E0B0
:100C4000029800F04FF80A2000F062F8029803F0D2
:100C500077FB20B1FFE701208DF80F0016E0029826
:100C6000F221012203F09CFF0298F521002200925C
:100C700003F096FF0298F421272203F091FF14203D
:100C800000F046F800988DF80F00FFE79DF80F0080
:100C900004B080BD80B584B00390029101920093AE
:100CA00003980299019A009B02F0A2F804B080BD5B
:100CB00080B584B002900298D0210DF10702012383
:100CC00003F0E2FB20B1FFE7FF208DF80F0004E006
:100CD0009DF807008DF80F00FFE79DF80F0004B0A6
:100CE00080BD000080B582B001900198E021B6225D
:100CF00003F056FF02B080BDFFE7FEE7704700003B
:100D000081B0EFF3108072B60090FFE7FEE70000BD
:100D100080B584B0039000F0F1F90290039801903F
:100D20000198013048B1FFE740F20400C2F2000030
:100D30000178019808440190FFE7FFE700F0DEF931
:100D40000299401A0199884201D2FFE7F6E704B000
:100D500080BD000090B00F900E9100200D90099082
:100D6000FFE70E9800680D99C840002800F07F81C9
:100D7000FFE70D99012088400C900E9800680C99AF
:100D800008400B900B980C99884240F06C81FFE76B
:100D90000E9840680590002851D0FFE7059801287B
:100DA0003AD0FFE7059802283FD0FFE705980328CF
:100DB0005FD0FFE70598112832D0FFE70598122889
:100DC00038D0FFE705980021C1F21101884236D0E2
:100DD000FFE705980021C1F2120188422FD0FFE7FA
:100DE00005980021C1F22101884228D0FFE705982B
:100DF0000021C1F22201884221D0FFE7059800219D
:100E0000C1F2310188421AD0FFE705980021C1F2F2
:100E10003201884213D02FE00E98C06809902CE070
:100E20000E98C0680430099027E00E98C06808301A
:100E3000099022E00E98C0680C3009901DE00E98D1
:100E4000806818B9FFE70420099011E00E988068C7
:100E5000012806D1FFE7082009900C980F99086136
:100E600005E0082009900C980F994861FFE7FFE71B
:100E700003E00020099000E0FFE70B98FF2803D86B
:100E8000FFE70F98049003E00F9804300490FFE709
:100E9000049808900B98FF2804D8FFE70D9880006D
:100EA000039006E00D996FF01F0000EB81000390A6
:100EB000FFE70398079008980068079A0F21914070
:100EC0008843099991400843089908600E98C079B1
:100ED000C006002840F1C680FFE7FFE741F2180096
:100EE000C4F20200016841F001010160006800F0F5
:100EF000010006900698FFE70D9820F003000821F6
:100F0000C4F2010140580A900D9800F003008100DE
:100F10000F2000FA01F10A9888430A900F9840F6D2
:100F20000001C4F20101884203D1FFE700200290D2
:100F300026E00F9840F60041C4F20101884203D137
:100F4000FFE70120019018E00F9841F20001C4F280
:100F50000101884203D1FFE7022000900AE00F99C7
:100F600041F20042C4F201020420914208BF032072
:100F70000090FFE700980190FFE701980290FFE7DB
:100F800002980D9901F00301890000FA01F10A9815
:100F900008430A900A980D9921F003010822C4F22F
:100FA000010288500E988079C006002809D5FFE715
:100FB0000B9A40F20841C4F201010868104308602E
:100FC00008E00B9A40F20841C4F20101086890431E
:100FD0000860FFE70E9880798006002809D5FFE7B2
:100FE0000B9A40F20C41C4F20101086810430860FA
:100FF00008E00B9A40F20C41C4F2010108689043EA
:101000000860FFE70E9880798007002809D5FFE780
:101010000B9A40F20441C4F20101086810430860D1
:1010200008E00B9A40F20441C4F2010108689043C1
:101030000860FFE70E988079C00748B1FFE70B9A78
:1010400040F20041C4F2010108681043086008E062
:101050000B9A40F20041C4F2010108689043086015
:10106000FFE7FFE7FFE70D9801300D9079E610B03C
:101070007047000082B00190ADF8021001988068BE
:10108000BDF80210084204D0FFE701208DF80100EE
:1010900003E000208DF80100FFE79DF8010002B099
:1010A0007047000083B00290ADF806100298C06847
:1010B0000090009ABDF8060002EA0001904340EA61
:1010C00001400299086103B07047000082B00190AE
:1010D000ADF802108DF801209DF8010028B1FFE75E
:1010E000BDF802000199086105E0BDF802000004A6
:1010F00001990861FFE702B07047000044F6341020
:10110000C2F200000068704740F20400C2F2000022
:10111000027844F63411C2F20001086810440860F5
:101120007047000080B542F20001C4F20201086875
:1011300040F010000860032000F094F80F2000F049
:1011400005F800F03BF8002080BD000080B582B0BB
:10115000009040F20000C2F20000006840F204017A
:10116000C2F200010A784FF47A71B1FBF2F1B0FBE0
:10117000F1F000F071FD20B1FFE701208DF80700CC
:1011800018E000980F280DD8FFE700994FF0FF30C6
:10119000002200F04DF8009840F20801C2F2000170
:1011A000086003E001208DF8070003E000208DF8BF
:1011B0000700FFE79DF8070002B080BD80B584B04E
:1011C000FFE741F21800C4F20200016841F001019A
:1011D0000160006800F0010003900398FFE7FFE75B
:1011E00041F21C00C4F20200016841F0805101602C
:1011F000006800F0805002900298FFE76FF0010055
:101200000F21002200F014F8FFE70421C4F20101CD
:1012100008680190019820F0E0600190019840F08A
:101220008060019001980860FFE704B080BD000075
:1012300080B586B08DF817000491039200200290CB
:1012400001F08EFD02909DF917000190029804991B
:10125000039A00F0C1FE0146019801F089FD06B035
:1012600080BD000080B582B00190019801F0A2FD20
:1012700002B080BD80B584B002900191029820B97F
:10128000FFE701208DF80F001BE1019842F20001F9
:10129000C4F20201096801F00701884216D9FFE78C
:1012A00042F20000C4F20200016821F00701019A35
:1012B00011430160006800F007000199884204D0E2
:1012C000FFE701208DF80F00FBE0FFE702980078B0
:1012D000800700282AD5FFE70298007840070028F9
:1012E00009D5FFE741F20401C4F20201086840F4A5
:1012F000E0600860FFE7029800780007002809D541
:10130000FFE741F20401C4F20201086840F46050B2
:101310000860FFE741F20401C4F20201086820F00E
:10132000F000029A926810430860FFE70298007884
:10133000C007002860D0FFE70298406801280ED15E
:10134000FFE741F20000C4F20200006880030028B9
:1013500004D4FFE701208DF80F00B2E021E00298ED
:10136000406802280ED1FFE741F20000C4F20200FB
:1013700000688001002804D4FFE701208DF80F00E9
:101380009FE00DE041F20000C4F202000068800717
:10139000002804D4FFE701208DF80F0091E0FFE75B
:1013A000FFE741F20401C4F20201086820F00300E3
:1013B000029A526810430860FFF7A0FE0090FFE712
:1013C00041F20400C4F20200006800F00C0002992F
:1013D0004968B0EB810F0ED0FFE7FFF78FFE009951
:1013E000401A41F28931884204D3FFE703208DF887
:1013F0000F0066E0E4E7FFE7019842F20001C4F263
:101400000201096801F00701884216D2FFE742F2A3
:101410000000C4F20200016821F00701019A1143A3
:101420000160006800F007000199884204D0FFE7DE
:1014300001208DF80F0044E0FFE702980078400794
:1014400000280CD5FFE741F20401C4F2020108684C
:1014500020F4E060029AD26810430860FFE7029827
:101460000078000700280DD5FFE741F20401C4F21F
:101470000201086820F46050029A126940EAC20032
:101480000860FFE700F04CF841F20401C4F20201E9
:101490000968C9B20A0946F24441C0F60001895CF4
:1014A000C84040F20001C2F20001086040F20800AA
:1014B000C2F200000068FFF749FE00208DF80F001F
:1014C000FFE79DF80F0004B080BD000040F200006F
:1014D000C2F200000068704780B5FFF7F7FF41F2E5
:1014E0000401C4F202010968C1F3022246F2544128
:1014F000C0F60001895CC84080BD000080B5FFF7E0
:10150000E5FF41F20401C4F202010968C1F3C222FD
:1015100046F25441C0F60001895CC84080BD00001D
:1015200086B000200590049003900290019041F253
:101530000400C4F2020000680590059800F00C0059
:101540000146009100283FD0FFE70098042804D00E
:10155000FFE70098082806D037E041F20020C0F2EB
:101560007A00019037E00598C0F3834146F2376076
:10157000C0F60000405C02909DF81600C007C0B1A4
:10158000FFE741F20400C4F202000068C0F34041EA
:1015900046F24760C0F60000405C0490029841F2B9
:1015A0000021C0F27A0148430499B0FBF1F00390A6
:1015B00007E0029840F60011C0F23D014843039055
:1015C000FFE70398019006E0FFE741F20020C0F238
:1015D0007A000190FFE7019806B0704780B586B0A9
:1015E0000490049820B9FFE701208DF817002EE33E
:1015F00004980078C007002800F0AE80FFE741F2B1
:101600000400C4F20200006800F00C00042813D0AB
:10161000FFE741F20400C4F20200006800F00C0091
:1016200008281BD1FFE741F20400C4F20200006861
:10163000C003002812D5FFE741F20000C4F2020007
:1016400000688003002808D5FFE70498406820B9A7
:10165000FFE701208DF81700F9E27CE0FFE704982E
:101660004068B0F5803F09D1FFE741F20001C4F2C4
:101670000201086840F48030086032E00498406855
:1016800068B9FFE741F20001C4F20201086820F4E2
:1016900080300860086820F48020086020E004980A
:1016A0004068B0F5A02F0DD1FFE741F20001C4F270
:1016B0000201086840F480200860086840F4803027
:1016C00008600CE041F20001C4F20201086820F455
:1016D00080300860086820F480200860FFE7FFE79A
:1016E000FFE7FFE704984068D0B1FFE7FFF706FD8A
:1016F0000390FFE741F20000C4F20200006880039B
:1017000000280CD4FFE7FFF7F9FC0399401A65287D
:1017100004D3FFE703208DF8170098E2EAE719E009
:10172000FFF7ECFC0390FFE741F20000C4F2020077
:101730000068800300280CD5FFE7FFF7DFFC039962
:10174000401A652804D3FFE703208DF817007EE2D6
:10175000EAE7FFE7FFE7FFE7049800788007002843
:1017600040F18D80FFE741F20400C4F202000068FE
:1017700010F00C0F13D0FFE741F20400C4F2020096
:10178000006800F00C00082829D1FFE741F20400AE
:10179000C4F202000068C003002820D4FFE741F231
:1017A0000000C4F2020000688007002809D5FFE7A6
:1017B00004980069012804D0FFE701208DF8170084
:1017C00045E241F20001C4F20201086820F0F8008D
:1017D000049A526940EAC2000860FFE74EE00498AC
:1017E000006958B3FFE70021C4F2422101200860DC
:1017F000FFF784FC0390FFE741F20000C4F202000F
:101800000068800700280CD4FFE7FFF777FC0399F6
:10181000401A032804D3FFE703208DF8170016E2CF
:10182000EAE741F20001C4F20201086820F0F80082
:10183000049A526940EAC20008601EE00021C4F226
:10184000422100200860FFF759FC0390FFE741F2B6
:101850000000C4F202000068800700280CD5FFE7F2
:10186000FFF74CFC0399401A032804D3FFE7032039
:101870008DF81700EBE1EAE7FFE7FFE7FFE70498E1
:1018800000780007002848D5FFE70498806918B35E
:10189000FFE740F28041C4F2422101200860FFF7D7
:1018A0002DFC0390FFE741F22400C4F2020000681F
:1018B000800700280CD4FFE7FFF720FC0399401AAB
:1018C000032804D3FFE703208DF81700BFE1EAE700
:1018D000012000F0D7FD1FE040F28041C4F2422118
:1018E00000200860FFF70AFC0390FFE741F22400A4
:1018F000C4F202000068800700280CD5FFE7FFF75C
:10190000FDFB0399401A032804D3FFE703208DF859
:1019100017009CE1EAE7FFE7FFE70498007840073B
:10192000002840F1D880FFE700208DF8070041F241
:101930001C00C4F202000068C000002813D4FFE7B6
:10194000FFE741F21C00C4F20200016841F080513F
:101950000160006800F0805000900098FFE70120CF
:101960008DF80700FFE747F20000C4F200000068AE
:10197000C005002822D4FFE747F20001C4F20001AD
:10198000086840F480700860FFF7B8FB0390FFE739
:1019900047F20000C4F200000068C00500280CD423
:1019A000FFE7FFF7ABFB0399401A652804D3FFE775
:1019B00003208DF817004AE1EAE7FFE7FFE7049804
:1019C000C068012809D1FFE741F22001C4F20201F9
:1019D000086840F00100086031E00498C06868B908
:1019E000FFE741F22001C4F20201086820F0010083
:1019F0000860086820F0040008601FE00498C068D0
:101A000005280DD1FFE741F22001C4F20201086868
:101A100040F004000860086840F0010008600CE035
:101A200041F22001C4F20201086820F001000860C0
:101A3000086820F004000860FFE7FFE7FFE7FFE722
:101A40000498C068E0B1FFE7FFF758FB0390FFE799
:101A500041F22000C4F202000068800700280ED482
:101A6000FFE7FFF74BFB0399401A41F289318842A7
:101A700004D3FFE703208DF81700E8E0E8E71BE058
:101A8000FFF73CFB0390FFE741F22000C4F20200A5
:101A90000068800700280ED5FFE7FFF72FFB0399AA
:101AA000401A41F28931884204D3FFE703208DF8C0
:101AB0001700CCE0E8E7FFE79DF80700012809D10F
:101AC000FFE741F21C01C4F20201086820F08050D7
:101AD0000860FFE7FFE70498C069002800F0B380C2
:101AE000FFE741F20400C4F20200006800F00C00BD
:101AF000082800F08280FFE70498C06902285CD1C2
:101B0000FFE76021C4F2422100200860FFF7F6FAE7
:101B10000390FFE741F20000C4F202000068800178
:101B200000280CD5FFE7FFF7E9FA0399401A0328CC
:101B300004D3FFE703208DF8170088E0EAE7049854
:101B4000006AB0F5803F0CD1FFE741F20401C4F216
:101B50000201086820F40030049A9268104308607B
:101B6000FFE741F20401C4F20201086820F4741096
:101B7000049B1A6A5B6A1A43104308606021C4F22E
:101B8000422101200860FFF7B9FA0390FFE741F214
:101B90000000C4F202000068800100280CD4FFE7B6
:101BA000FFF7ACFA0399401A032804D3FFE7032098
:101BB0008DF817004BE0EAE71EE06021C4F24221F5
:101BC00000200860FFF79AFA0390FFE741F2000057
:101BD000C4F202000068800100280CD5FFE7FFF77F
:101BE0008DFA0399401A032804D3FFE703208DF8E8
:101BF00017002CE0EAE7FFE724E00498C069012819
:101C000004D1FFE701208DF8170020E041F2040025
:101C1000C4F2020000680290029800F48030049937
:101C2000096A884208D1FFE7029800F4701004990D
:101C3000496A884204D0FFE701208DF8170006E0CA
:101C4000FFE7FFE7FFE700208DF81700FFE79DF8AB
:101C5000170006B080BD000080B582B001900198E9
:101C600000F0A4FD02B080BD80B582B00090009865
:101C700020B9FFE701208DF8070040E00098806957
:101C800008B1FFE700E0FFE7009890F8410040B995
:101C9000FFE70099002081F84000009800F034F838
:101CA000FFE70099242081F8410000980168C86886
:101CB00020F40050C860009800F084FF009801688C
:101CC000086920F49040086100980168486920F094
:101CD0002A00486100980168C86840F40050C86054
:101CE000009900204864009A202182F84110009A4F
:101CF00082F84210009948638DF80700FFE79DF8CD
:101D0000070002B080BD000080B58AB009900020B5
:101D100008900790069005900998006843F6000126
:101D2000C4F20101884239D1FFE7FFE741F2180010
:101D3000C4F20200016841F480410160006800F4CF
:101D4000804004900498FFE7FFE741F21800C4F2D6
:101D50000200016841F004010160006800F0040025
:101D600003900398FFE74FF400700590022006905F
:101D70000320089040F60000C4F20100019005A97C
:101D80000291FEF7E7FF019802994FF480620592F5
:101D9000002206920792FEF7DDFFFFE70AB080BD42
:101DA00080B58AB008900791ADF81A2005930020FD
:101DB0000290089890F84100202840F08180FFE7C9
:101DC000079820B1FFE7BDF81A0020B9FFE701200E
:101DD0008DF8270078E008990020486408992120B0
:101DE00081F84100FFF78AF90290BDF81A000899BE
:101DF0008884BDF81A000899C88408988068B0F5EE
:101E0000805F09D1FFE70898006928B9FFE7002043
:101E100004900798039004E0079804900020039032
:101E2000FFE7FFE70898C08C78B3FFE70898029BAC
:101E300005996A4611608021002200F021FF40B11F
:101E4000FFE70899202081F8410003208DF8270042
:101E50003AE0049858B9FFE7039800886FF35F20D1
:101E600008990968486003980230039008E00498D4
:101E70000078089909684860049801300490FFE7E9
:101E80000899C88C0138C884CCE70898029B05994A
:101E90006A4611604021002200F0F2FE40B1FFE7E7
:101EA0000899202081F8410003208DF827000BE0DD
:101EB0000899202081F8410000208DF8270003E0D8
:101EC00002208DF82700FFE79DF827000AB080BDAB
:101ED000FFE7FEE780B58EB000200D900C900B90D0
:101EE0000A90FFE741F21800C4F20200016841F0D5
:101EF00008010160006800F0080009900998FFE7F8
:101F0000FFE741F21800C4F20200016841F020012D
:101F10000160006800F0200008900898FFE7FFE7E4
:101F200041F21800C4F20200016841F004010160AE
:101F3000006800F0040007900798FFE740F60040B3
:101F4000C4F2010002904FF48051019100220492EA
:101F5000FFF7BCF8019A029804990A9201220592AF
:101F60000B920C91022103910D910AA90691FEF7A3
:101F7000F1FE039B049A059806990A930B920C9024
:101F800040F60000C4F20100FEF7E4FE0EB080BD92
:101F900080B582B040F24C40C2F20000019043F69E
:101FA0000001C4F2010101604FF4E1314160002100
:101FB0008160C16001610C2242618161C161FFF7F2
:101FC00053FE18B1FFE7FEF79BFEFFE702B080BDAE
:101FD000FFE7FEE7FFE7FEE788B00790069105926E
:101FE000079800F0070004900498C0F10700052846
:101FF00003D3FFE70420019004E00498C0F1070038
:102000000190FFE70198039004980430062803D854
:10201000FFE70020009003E0049803380090FFE7FA
:102020000098029006980399012202FA01F1013901
:102030000840029B984005999A40013A1140084394
:1020400008B0704781B00020ADF80200FFE7BDF88E
:1020500002100020B0EB912F0FD1FFE7BDF8022056
:1020600040F21401C2F2000100208854FFE7BDF8DD
:1020700002000130ADF80200E9E701B0704700004E
:1020800080B582B08DF807008DF806108DF8052018
:102090009DF80500202805DBFFE79DF805007F2857
:1020A00004DBFFE720208DF80500FFE79DF8050021
:1020B00020388DF8050000208DF80400FFE79DF81A
:1020C0000400042839DCFFE700208DF80300FFE757
:1020D0009DF80300062829DCFFE79DF8050000EBCA
:1020E000800146F25C40C0F6000008449DF80410F0
:1020F000405C9DF80310C840C00780B1FFE79DF821
:1021000007009DF8041008449DF806109DF8032070
:102110001144C0B2C9B2012200F0F4F8FFE7FFE7B2
:102120009DF8030001308DF80300D1E7FFE79DF82B
:10213000040001308DF80400C1E702B080BD00004A
:1021400080B584B08DF80F008DF80E108DF80D203D
:102150009DF80D00032801DBFFE74EE09DF80D1010
:1021600046F24960C0F6000000EB411001900020EB
:102170008DF80C00FFE79DF80C000F283DDCFFE711
:1021800001999DF80C2001EB420011F812104078E3
:1021900040EA0120ADF8080000208DF80B00FFE7B1
:1021A0009DF80B000F2821DCFFE7BDF808009DF823
:1021B0000B204FF40041D140084210D0FFE79DF8BA
:1021C0000F009DF80B1008449DF80E109DF80C2090
:1021D0001144C0B2C9B2012200F094F8FFE7FFE752
:1021E0009DF80B0001308DF80B00D9E7FFE79DF853
:1021F0000C0001308DF80C00BDE704B080BD00007C
:1022000080B584B003906420FEF782FDAE2000F01C
:10221000FBF8D52000F0F8F8802000F0F5F8A820B1
:1022200000F0F2F83F2000F0EFF8D32000F0ECF8D7
:102230000020019000F0E8F84020029000F0E4F85F
:102240008D2000F0E1F8142000F0DEF8202000F0EE
:10225000DBF8019800F0D8F8A12000F0D5F8C820EC
:1022600000F0D2F8812000F0CFF8CF2000F0CCF8B9
:10227000D92000F0C9F8F12000F0C6F8DB2000F00A
:10228000C3F8029800F0C0F8A42000F0BDF8A62022
:1022900000F0BAF8AF2000F0B7F8FFF7D3FE00F077
:1022A00075F804B080BD000080B582B08DF80700DD
:1022B0008DF806100092FFE700980078F8B1FFE76C
:1022C0009DF807009DF80610009A1278FFF7D8FED7
:1022D0009DF8070006308DF807009DF807007B2861
:1022E00009DBFFE700208DF807009DF806000830A5
:1022F0008DF80600FFE7009801300090DCE702B09F
:1023000080BD000081B08DF803008DF802108DF8BB
:1023100001209DF803007F2805DCFFE79DF80200FF
:10232000402801DBFFE72FE09DF80100B0B1FFE797
:102330009DF8022002F00701012000FA01F39DF848
:1023400003006FF0700101EA0211421840F214011B
:10235000C2F20001885C1843885415E09DF8022001
:1023600002F00701012000FA01F39DF803006FF06D
:10237000700101EA0211421840F21401C2F2000198
:10238000885C98438854FFE701B0704780B582B0FD
:1023900000208DF80700FFE79DF80700072831DCD3
:1023A000FFE79DF80700B030C0B200F02DF8002024
:1023B000009000F029F8102000F026F800988DF821
:1023C0000600FFE79DF806007F2814DCFFE79DF874
:1023D00006009DF8071000EBC11140F21400C2F294
:1023E0000000405C00F01CF8FFE79DF8060001309B
:1023F0008DF80600E6E7FFE79DF8070001308DF84D
:102400000700C9E702B080BD80B582B08DF8070033
:102410009DF807203C20002100F08EF902B080BD1D
:1024200080B582B08DF807003C2040210DF10702F5
:10243000012300F031F902B080BD0000000000006F
:10244000EFF30980BFF36F8F0D4B1A6820E9F00F8F
:1024500010602DE908404FF0500080F3118802F021
:102460003BFB4FF0000080F31188BDE8084019687D
:102470000868B0E8F00F80F30988BFF36F8F7047EA
:10248000B004002082B00190019840F20001C2F235
:1024900000010968C90844F6D352C1F26202A1FBE7
:1024A0000221890948430090FFE700BFFFE7009839
:1024B000411E00910028F8D1FFE702B070470000EC
:1024C00080B540F60040C4F2010040210122FEF731
:1024D000FDFD00F0D3FC80BD80B540F60040C4F2A5
:1024E000010040210022FEF7F1FD00F0C7FC80BD95
:1024F00080B540F60040C4F2010080210122FEF7C1
:10250000E5FD00F0BBFC80BD80B540F60040C4F2A4
:10251000010080210022FEF7D9FD00F0AFFC80BD54
:1025200080B540F60040C4F201008021FEF7A2FD14
:1025300080BD00000000000000000000000000005E
:10254000074B19680868B0E8F00F80F30988BFF3FB
:102550006F8F4FF0000080F311884EF00D0E704722
:10256000B004002080B588B0002007900690059048
:102570000490FFE741F21800C4F20200016841F044
:1025800008010160006800F0080003900398FFE76D
:10259000C020049011200590012002900690032095
:1025A000079040F60040C4F20100019004A9FEF734
:1025B000D1FB0198029A4021FEF788FD0198029A0A
:1025C0008021FEF783FD00F059FC08B080BD0000BB
:1025D00080B584B08DF80E008DF80D1002928DF844
:1025E000073000F0A5FC9DF80E004000C0B200F0DE
:1025F000B3FC30B1FFE700F0A5FC01208DF80F001F
:1026000045E09DF80D0000F0A7FC30B1FFE700F0B9
:1026100099FC01208DF80F0039E000F093FC00F0E8
:1026200087FC9DF80E0040000130C0B200F094FC21
:1026300030B1FFE700F086FC01208DF80F0026E0A6
:1026400000208DF80600FFE79DF806009DF80710B2
:10265000884216DAFFE79DF806009DF80710401A39
:102660000130B0FA80F0400900F018FC02999DF8A2
:1026700006208854FFE79DF8060001308DF806001B
:10268000E2E700F05FFC00208DF80F00FFE79DF807
:102690000F0004B080BD000080B584B08DF80E003E
:1026A0008DF80D1002928DF8073000F041FC9DF876
:1026B0000E004000C0B200F04FFC30B1FFE700F068
:1026C00041FC01208DF80F0031E09DF80D0000F075
:1026D00043FC30B1FFE700F035FC01208DF80F001E
:1026E00025E000208DF80600FFE79DF806009DF824
:1026F0000710884215DAFFE702989DF80610405C43
:1027000000F02AFC30B1FFE700F01CFC01208DF83E
:102710000F000CE0FFE79DF8060001308DF8060081
:10272000E3E700F00FFC00208DF80F00FFE79DF8B5
:102730000F0004B080BD000080B582B08DF80600A7
:102740008DF805108DF8042000F0F2FB9DF80600CE
:102750004000C0B200F000FC30B1FFE700F0F2FB37
:1027600001208DF807001DE09DF8050000F0F4FB46
:1027700030B1FFE700F0E6FB01208DF8070011E023
:102780009DF8040000F0E8FB30B1FFE700F0DAFB51
:1027900001208DF8070005E000F0D4FB00208DF843
:1027A0000700FFE79DF8070002B080BD80B582B04A
:1027B000009000980138B0F1807F03D3FFE701203B
:1027C000019019E0009801384EF21401CEF2000198
:1027D00008604FF0FF300F2100F0CAFA4EF21801E6
:1027E000CEF20001002008604EF21002CEF200028C
:1027F000072111600190FFE7019802B080BD000041
:1028000080B5FEF781FC02F063FE012803D0FFE7EC
:1028100002F050FAFFE780BD80B590B006A80090A6
:102820002821FDF7C9FC009800210591049103912E
:10283000029101910222069201220A9210220B9229
:102840000D91FEF7CBFE18B1FFE7FEF759FAFFE74F
:102850000F2001900021029103910491059101A89C
:10286000FEF708FD18B1FFE7FEF74AFAFFE710B0E0
:1028700080BD00007047000080B582B00190FFE786
:10288000C82002F02BF840F23840C2F20000007875
:10289000F0B1FFE740F24440C2F200000078014688
:1028A000009140B1FFE70098012807D0FFE70098AA
:1028B000022806D008E000F093FC08E000F032FCAB
:1028C00005E000F059FC02E000F08AFCFFE70CE0B4
:1028D000FFF7B8FB46F20872C0F600020021084676
:1028E000FFF7E2FCFFF752FDFFE7C9E780B582B0D2
:1028F000019001208DF80300FFE7322001F0EEFF88
:1029000040F60000C4F201000221FEF7B3FB0138DB
:10291000B0FA80F040098DF802009DF80200D0B9AD
:10292000FFE79DF80300012815D1FFE740F244417D
:10293000C2F20001087801304AF6AB22CAF6AA2298
:10294000A0FB0232520802EB4202801A0870C82033
:1029500001F0C4FFFFE79DF802008DF80300CCE70B
:1029600080B582B00190FFE740F60040C4F201005C
:102970004FF48051FEF796FB4FF4FA7001F0AEFF72
:10298000F2E7000080B586B0059000208DF81300B6
:10299000FFE74FF47A7001F0A1FF9DF8130008BB28
:1029A000FFE70020FEF732F920B9FFE701208DF89C
:1029B000130016E040F24841C2F200010020086016
:1029C00040F23C41C2F20001086040F24041C2F2D4
:1029D0000001086040F23841C2F200010120087095
:1029E000D7E7FFE7002003A902AA01ABFEF752F9DF
:1029F000C8B9FFE7039840F24841C2F200010860FD
:102A0000029840F23C41C2F200010860019840F295
:102A10004041C2F20001086040F23841C2F20001B8
:102A200001200870FFE7B4E7B0B5A0B01F90FFE742
:102A30004FF47A7001F052FF40F24840C2F20000B9
:102A400005900068FDF759FC014605980B91006858
:102A50000021C4F220110791FDF7C0FBFDF74DFCEA
:102A600046F26761C6F26661099180FB011291101E
:102A700001EBD27101EB8101A0EB41000C9040F21F
:102A80003C40C2F2000006900068FDF736FC079952
:102A9000024606980D920068FDF7A0FBFDF72DFC9D
:102AA000099980FB0112911001EBD27101EB8101B8
:102AB000A0EB41000A9040F24040C2F200000890B2
:102AC0000068FDF71AFC0799044608980068FDF7AE
:102AD00085FBFDF712FC0999DDF828C00B9A0C9BC9
:102AE000DDF834E080FB0115A91001EBD57101EB95
:102AF0008101A0EB410069468C60C1F800E0C1F89B
:102B000004C0C86046F2DD61C0F600010FA80E9057
:102B100003F016F80E98FDF75AFB0E9982B240F2B8
:102B20004C40C2F20000C823FFF73AF980E70000EA
:102B300084B00390FFE7FFE70398006850E8030FB5
:102B400020F490700290FFE702990398026842E82F
:102B500003100028F0D1FFE7FFE7FFE7FFE7039846
:102B6000006850E8050F20F001000190FFE701998F
:102B70000398026842E805100028F0D1FFE7FFE75C
:102B80000398006B012814D1FFE7FFE7FFE70398E4
:102B9000006850E8030F20F010000090FFE7009954
:102BA0000398026842E803100028F0D1FFE7FFE72E
:102BB000FFE70399202081F8420003990020086371
:102BC00004B0704780B584B0039003980068006932
:102BD00020F44050039A1168D268104308610399A9
:102BE00088680A694969104308430290039800689D
:102BF000C06841F20C61884302990843039909684F
:102C0000C86003980068406920F44070039A116816
:102C10009269104348610398006843F60001C4F2CA
:102C20000101884204D1FFE7FEF768FC019003E050
:102C3000FEF752FC0190FFE7019819214843039ADF
:102C4000116852689200B0FBF2FC48F21F52C5F2C4
:102C5000EB12ACFB02304309642003FB10CC3220A2
:102C600000EB0C10A0FB0202F02000EA521000EB77
:102C70000310C2F343121044886004B080BD00000A
:102C800080B586B0DDF820C0049003918DF80B204C
:102C90000193FFE704980068006803990840401A10
:102CA000B0FA80F040099DF80B1088424DD1FFE743
:102CB00008980130002847D0FFE7FEF71FFA019976
:102CC000401A0899884203D8FFE7089820B9FFE71F
:102CD00003208DF817003CE004980068C0684007A6
:102CE000002830D5FFE7039880282CD0FFE7039811
:102CF000402828D0FFE704980068006800F0080129
:102D00000120B0EBD10F1DD1FFE7FFE700200090BD
:102D1000049800680068009004980068406800907B
:102D20000098FFE70498FFF703FF04990820486420
:102D3000FFE70499002081F84000FFE701208DF8AB
:102D4000170006E0FFE7FFE7A4E700208DF8170073
:102D5000FFE79DF8170006B080BD0000FFE7FEE723
:102D60004EF60C50CEF200000068C0F3022070470F
:102D700082B08DF8070000919DF9070000280AD461
:102D8000FFE7009800019DF907104EF20042CEF2D5
:102D9000000288540BE0009800019DF8071001F034
:102DA0000F014EF61452CEF200028854FFE702B033
:102DB0007047000083B00290029800F00700009076
:102DC0004EF60C51CEF200010868019001984FF6C2
:102DD000FF02104001900198009A40EA0220002270
:102DE000C0F2FA52104301900198086003B0704796
:102DF00010B58CB00A900991089207930A98F721B0
:102E000005AA082301F040FB20B1FFE701208DF85F
:102E10002F002FE09DF814009DF815209DF8161046
:102E2000000340EA021040EA111003909DF81700D9
:102E30009DF818209DF81910000340EA021040EA9E
:102E4000111004909DF81A109DF81B0061F30F20DB
:102E5000029004980399029A099BDDF820C0079C10
:102E6000EE46CEF80440CEF800C0FDF735FD8DF8F3
:102E70002F00FFE79DF82F000CB010BD81B000209F
:102E80000090FFE70098042805D8FFE7FFE70098C7
:102E900001300090F6E701B07047000080B582B0C5
:102EA0008DF80700002000908DF80600FFF720FB4A
:102EB00000988DF80500FFE79DF8050007281FDC46
:102EC000FFE79DF8060040008DF80600FFF7F8FACE
:102ED000FFF7D4FFFFF724FB38B1FFE79DF80600AA
:102EE00040F001008DF80600FFE7FFF7F5FAFFF765
:102EF000C5FFFFE79DF8050001308DF80500DBE711
:102F00009DF8070018B1FFE7FFF7F2FA02E0FFF7BC
:102F1000FBFAFFE7FFF7B2FFFFF7D2FAFFF7AEFFCA
:102F2000FFF7DAFAFFF7E4FA9DF8060002B080BD79
:102F300080B5FFF7DDFAFFF7C3FAFFF7E5FAFFF711
:102F4000CBFA80BD80B5FFF7DFFAFFF7B9FAFFF7DC
:102F500095FFFFF7CDFA80BD80B582B08DF80700F0
:102F600000208DF80600FFE79DF8060007281CDC0E
:102F7000FFE79DF807000006002803D5FFE7FFF7ED
:102F8000B7FA02E0FFF7C0FAFFE79DF8070040003C
:102F90008DF80700FFF794FAFFF79EFAFFE79DF818
:102FA000060001308DF80600DEE7FFF7A1FAFFF713
:102FB00065FFFFF785FAFFF761FFFFF7B1FA002819
:102FC00018BF01208DF80500FFF786FA9DF805006F
:102FD00002B080BD80B586B0002004900590FEF759
:102FE000A1F8FFF719FCFEF775FFFEF7D1FFFFF719
:102FF000B9FA0498FFF704F9FFF724F8049946F2A8
:10300000C462C0F600020846FFF74EF9049846F283
:10301000AD62C0F600021021FFF746F9FFF7B6F9DE
:1030200040F2DC50FDF774FE00F058F8049B69464E
:103030004B600220086042F68510C0F6000046F2A0
:10304000BD61C0F600014FF40072029202F0F4F983
:10305000049B69464B600320086042F67900C0F685
:10306000000046F2D161C0F600014FF4806202F028
:10307000E3F9029A049B69464B600120086042F61E
:103080002920C0F6000046F2B861C0F6000102F047
:10309000D3F9049B69464B600420086042F6ED00BA
:1030A000C0F6000046F2D961C0F600014FF480720C
:1030B000039202F0C1F9039A049B684643600360DF
:1030C00042F66110C0F6000046F2A961C0F60001A8
:1030D00002F0B2F901F0A0FCFFE7FEE782B0EFF3E7
:1030E00005800190019820B1FFE76FF00500009086
:1030F00014E040F21000C2F20000006848B9FFE797
:1031000040F21001C2F2000101200860002000908E
:1031100003E04FF0FF300090FFE7FFE7009802B0B8
:103120007047000080B582B0FEF78CFF46F2317226
:10313000C0F60002002101910846FFF7B5F840F201
:103140004040C2F200000068FDF7D7F8024640F2A6
:103150009440C2F20000009046F21A71C0F60001DD
:1031600002F0EEFC009A01981421FFF79DF8FFF79A
:103170000DF902B080BD000080B582B0FEF762FF9D
:1031800046F23A72C0F60002002101910846FFF7AC
:103190008BF801F0AFF9024640F29440C2F2000011
:1031A000009046F22771C0F6000102F0C9FC009AB7
:1031B00001981021FFF778F801F002FD024600980F
:1031C00046F24671C0F6000102F0BAFC009A01987E
:1031D0002021FFF769F8FFF7D9F802B080BD0000A1
:1031E00080B588B0FEF72EFF0022049210461146EB
:1031F000FEF7A6FF40F24840C2F2000001900068CE
:10320000FDF77BF801460198029100680021C4F2A5
:103210002011FCF7E3FFFDF770F8029A46F26761B0
:10322000C6F2666180FB0113991001EBD37101EBCB
:103230008101A0EB410340F29440C2F200000690ED
:1032400046F21371C0F6000102F07AFC0499069A66
:1032500012200790FFF728F804981021039101220B
:10326000FEF76EFF40F23C40C2F200000068FDF73E
:1032700044F80246069846F20371C0F6000102F0D7
:103280005FFC0399069A0798FFF70EF8049820212F
:1032900005910222FEF754FF40F24040C2F20000C6
:1032A0000068FDF72AF80246069846F22171C0F63A
:1032B000000102F045FC0599069A0798FEF7F4FF15
:1032C000FFF764F808B080BD80B584B00390029128
:1032D00044F64820C2F200000068009040F2B0407E
:1032E000C2F200000068043001F0E0F808B9FFE71E
:1032F00000E0FFE70398013080B9FFE7029868B16A
:10330000FFE740F2B040C2F200000068011D44F641
:103310002020C2F2000001F049F93DE00098039935
:1033200008440190019840F2B041C2F200010968DE
:1033300048600198009988420ED2FFE740F2C040F1
:10334000C2F20000006840F2B041C2F20001096818
:10335000043101F0F5F81EE040F2B840C2F200007E
:10336000006840F2B041C2F200010968043101F086
:10337000E7F8019844F6AC11C2F2000109688842EE
:1033800007D2FFE7019844F6AC11C2F200010860D1
:1033900000E0FFE7FFE7FFE704B080BD80B582B043
:1033A000019001F021F944F63811C2F200010868D9
:1033B0000130086040F2B040C2F20000006898B9E5
:1033C000FFE7019840F2B041C2F20001086044F604
:1033D0003810C2F200000068012803D1FFE700F0B6
:1033E000C7FA00E0FFE71CE044F61420C2F2000038
:1033F0000068A0B9FFE740F2B040C2F200000068E8
:10340000C06A0199C96A884207D8FFE7019840F26B
:10341000B041C2F20001086000E0FFE700E0FFE712
:10342000FFE744F64410C2F2000001680131016078
:103430000068019948640198C06A44F64811C2F2D4
:1034400000010968884208D9FFE70198C06A44F67C
:103450004811C2F200010860FFE70199C86A00EB59
:10346000800240F2C840C2F2000000EB820004314A
:1034700001F09CF801F0E4F844F61420C2F20000D8
:103480000068C8B1FFE740F2B040C2F20000006837
:10349000C06A0199C96A88420CD2FFE74EF604510E
:1034A000CEF200014FF080500860BFF34F8FBFF3A2
:1034B0006F8F00E0FFE700E0FFE702B080BD000093
:1034C00080B582B001F090F844F64C20C2F20000C2
:1034D0000068B0BBFFE744F64C10C2F20000009059
:1034E00001F00EF844F66010C2F20000019001F005
:1034F00007F80099019840F2B442C2F2000211604C
:1035000040F2C441C2F2000108600A2010210022EA
:1035100001F0EEFB014644F64C20C2F200000160CF
:10352000006860B1FFE744F64C20C2F2000000687A
:1035300046F25571C0F6000101F074F900E0FFE7B2
:1035400000E0FFE701F07CF802B080BD80B582B0FA
:10355000FFE744F63C10C2F20000006808B3FFE742
:1035600001F042F844F63420C2F20000C068C0689E
:1035700001900198043000F099FF44F63811C2F22E
:10358000000108680138086044F63C11C2F20001ED
:1035900008680138086001F053F8019800F08CF8D1
:1035A000D7E702B080BD000080B582B001900091E5
:1035B0000198006CB8B1FFE70199C8680A6C104423
:1035C000C86001988168C068884204D3FFE7019908
:1035D0000868C86000E0FFE70098019AD168126CA3
:1035E000FCF7D1FDFFE702B080BD000080B586B0DA
:1035F000059004910392002002900598806B019041
:103600000598006C78B9FFE70598006848B9FFE7AE
:103610000598806802F064F802900599002088609F
:1036200000E0FFE741E00398B8B9FFE7059A049985
:103630005068126CFCF7A7FD059948680A6C1044A5
:103640004860059948688968884204D3FFE705996E
:103650000868486000E0FFE726E0059A0499D06812
:10366000126CFCF790FD0599C8680A6C801AC86056
:1036700005980168C068884206D2FFE70599886806
:103680000A6C801AC86000E0FFE70398022809D19D
:10369000FFE7019820B1FFE701980138019000E0B1
:1036A000FFE700E0FFE7FFE7FFE70198013005993A
:1036B0008863029806B080BD80B582B00190019801
:1036C000006B00F0E3FF019800F0E0FF02B080BD66
:1036D00082B0019040F2B440C2F20000006800687D
:1036E000B0FA80F04009019908600198006848B973
:1036F000FFE740F2B440C2F200000068C068006812
:10370000009002E000200090FFE7009802B07047B0
:1037100084B04FF48040009040F62C10C2F20000BC
:1037200001909DF80400400788B1FFE70198073039
:103730000190019820F007000190019A40F62C11A9
:10374000C2F200010098891A08440090FFE701982E
:103750000290029944F61820C2F200000160002194
:1037600041600298009A1044019001980838019035
:10377000019820F007000190019A40F2BC40C2F28B
:1037800000000260026851600268116002990391B2
:103790000199039A891A5160006803990860039897
:1037A000406844F6A811C2F200010860039840681E
:1037B00044F6A011C2F20001086044F67411C2F28E
:1037C00000014FF00040086004B0704780B582B03F
:1037D0000190FFE7FFF7BAFE40F2C840C2F20000D6
:1037E000006802280CD3FFE74EF60451CEF2000128
:1037F0004FF080500860BFF34F8FBFF36F8F00E032
:10380000FFE7E7E780B584B0DDF818C003900291C8
:1038100001928DF80330029818B9FFE7069800600E
:1038200003E0019806990860FFE703980699C863CA
:103830000298069908640698012101F08FFA9DF814
:103840000300069981F84C0004B080BD80B588B0B3
:10385000DDF834C0DDF830C0DDF82CC0DDF828C05C
:1038600006900591049203930C98006B04998900CB
:10387000A522FCF79AFC0C98006B049900EB8100E0
:1038800004380290029820F0070002909DF808008A
:10389000400758B1FFE74FF0500080F31188BFF3A5
:1038A0006F8FBFF34F8F0790FFE7FEE70598F8B1E2
:1038B000FFE700200190FFE701980F2813D8FFE7EA
:1038C0000598019A805C0C99114481F834000598A0
:1038D0000199405C08B9FFE705E0FFE7FFE70198C1
:1038E00001300190E8E70C99002081F8430004E0E2
:1038F0000C99002081F83400FFE70A98382803D398
:10390000FFE737200A9000E0FFE70A980C99C862A9
:103910000A980C99C8640C990020009008650C98CE
:10392000043000F005FE0C98183000F001FE0098FD
:103930000C9909610A99C1F138010C9A91610C99AD
:1039400049620C9948650C9981F8580002980699CB
:10395000039A00F0CDFC0C9908600B9820B1FFE7AA
:103960000C980B99086000E0FFE708B080BD0000EC
:1039700080B584B000200390FFE70398372810D863
:10398000FFE7039800EB800140F2C840C2F200005C
:1039900000EB810000F0B4FDFFE7039801300390D5
:1039A000EBE744F67810C2F20000019000F0A8FDA9
:1039B00044F68C10C2F20000029000F0A1FD44F623
:1039C000C010C2F2000000F09BFD44F63420C2F2A9
:1039D000000000F095FD44F62020C2F2000000F047
:1039E0008FFD0199029840F2B842C2F200021160C4
:1039F00040F2C041C2F20001086004B080BD000086
:103A000083B0029044F61820C2F200000190FFE754
:103A1000019800680299884205D2FFE7FFE7019804
:103A200000680190F4E701980090009801994968B6
:103A300008440299884209D1FFE702984268019937
:103A40004868104448600198029000E0FFE702983F
:103A500000900098029949680844019909688842D1
:103A600020D1FFE70198006840F2BC41C2F200019A
:103A7000096888420DD0FFE7019800684268029902
:103A8000486810444860019800680068029908601E
:103A900007E040F2BC40C2F20000006802990860F2
:103AA000FFE704E00198006802990860FFE70198C9
:103AB0000299884204D0FFE702980199086000E06B
:103AC000FFE703B07047000080B586B00590049111
:103AD000039202930020019004980599486005988C
:103AE000006104980399884216D8FFE70398029969
:103AF000401A05998969884203D3FFE701200190A4
:103B000009E040F2C440C2F20000006805990431A7
:103B100000F016FDFFE717E003980299884208D2EB
:103B2000FFE704980299884203D3FFE70120019040
:103B300009E040F2B440C2F2000000680599043187
:103B400000F0FEFCFFE7FFE7019806B080BD000033
:103B500080B582B0019000F047FD0198806B18B9E4
:103B6000FFE70120009002E000200090FFE700F056
:103B700067FD009802B080BD80B582B0019000F072
:103B800033FD0198806B0199C96B884203D1FFE72F
:103B90000120009002E000200090FFE700F050FDBF
:103BA000009802B080BD000006480068006880F3FD
:103BB000088862B661B6BFF34F8FBFF36F8F00DF27
:103BC00000BF000008ED00E080B586B004900391CE
:103BD00040F2B440C2F200000068C068C0680190C2
:103BE0000198043000F062FC019890F8280040072A
:103BF000002823D5FFE70198049B81691944039AA3
:103C0000FFF762FFC0B1FFE70198049A69460023FD
:103C10000B60194601F03CFF0290029858B9FFE78B
:103C20004FF0500080F31188BFF36F8FBFF34F8FB9
:103C30000590FFE7FEE700E0FFE707E0019991F854
:103C4000280000F0FE0081F82800FFE70198016AD3
:103C5000884706B080BD000080B58EB0FFE744F60F
:103C60004C20C2F20000006807A9002201F090FA7F
:103C7000002800F0B880FFE70798B0F1FF3F17DC9D
:103C8000FFE707A804300290029858B9FFE74FF009
:103C9000500080F31188BFF36F8FBFF34F8F0D90EB
:103CA000FFE7FEE702990A6848688968904700E0E4
:103CB000FFE70798002800F19580FFE70998069034
:103CC0000698406928B1FFE70698043000F0EEFB43
:103CD00000E0FFE705A800F0FBF8039007980190CB
:103CE000092800F27D800199DFE801F00505053D16
:103CF000456605053D45069991F8280040F001000C
:103D000081F828000698089B81691944039AFFF7F7
:103D1000DBFE30B3FFE70698016A8847069890F803
:103D20002800400700281AD5FFE7069808998269FD
:103D30000A44694600230B60194601F0A9FE04906D
:103D4000049858B9FFE74FF0500080F31188BFF393
:103D50006F8FBFF34F8F0C90FFE7FEE700E0FFE7A8
:103D600000E0FFE73DE0069991F8280000F0FE0032
:103D700081F8280035E0069991F8280040F001000C
:103D800081F828000898069988610698806958B9D2
:103D9000FFE74FF0500080F31188BFF36F8FBFF340
:103DA0004F8F0B90FFE7FEE70698039B816919444C
:103DB0001A46FFF789FE14E0069890F8280080075D
:103DC000002804D4FFE7069800F060FC07E006999D
:103DD00091F8280000F0FE0081F82800FFE700E0DD
:103DE000FFE7FFE73BE70EB080BD000080B584B081
:103DF0000390029100F068FE684600F069F80190B7
:103E00000098D8BBFFE7029860B9FFE703980199D3
:103E1000884207D8FFE701F041FD03980199FFF7B9
:103E2000D3FE2AE0029858B1FFE740F2C440C2F244
:103E3000000000680068B0FA80F040090290FFE7D7
:103E400044F64C20C2F2000000680399019A891AD6
:103E5000029A00F011FD01F021FD60B9FFE74EF676
:103E60000451CEF200014FF080500860BFF34F8F35
:103E7000BFF36F8F00E0FFE7FFE702E001F00EFD08
:103E8000FFE704B080BD000081B040F2B840C2F24C
:103E900000000068006840B9FFE744F6AC11C2F2C8
:103EA00000014FF0FF3008600FE040F2B840C2F26E
:103EB00000000068C068C06800900098406844F640
:103EC000AC11C2F200010860FFE701B070470000CA
:103ED00080B582B0019001F017FB0090009840F28D
:103EE000AC41C2F200010968884206D2FFE700F047
:103EF00011F801990120086003E001990020086091
:103F0000FFE7009840F2AC41C2F20001086000985F
:103F100002B080BD80B588B0FFE740F2B440C2F285
:103F200000000068006800284ED0FFE740F2B4406F
:103F3000C2F200000168C968096806910068C0689B
:103F4000C06803900398043000F0B0FA0398016A47
:103F50008847039890F828004007002832D5FFE7EB
:103F6000069803998969084405900598069988423E
:103F70000FD9FFE70598039948600398006140F264
:103F8000B440C2F2000000680399043100F0D8FA8E
:103F900017E00398069A694600230B60194601F062
:103FA00077FD0290029858B9FFE74FF0500080F378
:103FB0001188BFF36F8FBFF34F8F0790FFE7FEE7C6
:103FC000FFE700E0FFE7A8E740F2B442C2F20002D8
:103FD0001068049040F2C441C2F200010868106009
:103FE0000498086008B080BD83B00020009040F2C3
:103FF0000C00C2F200000068013058B1FFE74FF03A
:10400000500080F31188BFF36F8FBFF34F8F029082
:10401000FFE7FEE74FF0500080F31188BFF36F8F8A
:10402000BFF34F8F0190FFE7009808B9FFE7FBE768
:1040300003B0704780B584B00390FFE701A8FFF795
:1040400047FB029002980199FFF7D0FEFFF704FEAC
:10405000F4E7000080B582B0019000F0C5FA019845
:1040600090F845008DF80300FFE79DF90300012853
:1040700016DBFFE70198406A58B1FFE7019824304A
:1040800001F0A4FB18B1FFE700F072FC00E0FFE7CD
:1040900000E005E09DF8030001388DF80300E4E737
:1040A0000199FF2081F8450000F0CAFA00F09CFA5F
:1040B000019890F844008DF80200FFE79DF9020096
:1040C000012816DBFFE70198006980B1FFE701983E
:1040D000103001F07BFB18B1FFE700F049FC00E075
:1040E000FFE79DF8020001388DF8020000E000E0D3
:1040F000E4E70199FF2081F8440000F0A1FA02B042
:1041000080BD000080B58AB006900020029000F0CB
:10411000DBFC40F2BC40C2F20000006818B9FFE7C7
:10412000FFF7F6FA00E0FFE7069844F67411C2F2D2
:1041300000010968084240F0C580FFE7069800B317
:10414000FFE70698083006909DF818004007B0B1C8
:10415000FFE7069820F00700083006909DF8180049
:10416000400758B1FFE74FF0500080F31188BFF3CC
:104170006F8FBFF34F8F0990FFE7FEE700E0FFE787
:1041800000E0FFE70698002800F09A80FFE7069815
:1041900044F6A011C2F200010968884200F2908042
:1041A000FFE744F61820C2F2000004900068059072
:1041B000FFE705984168069A00209142019007D2D6
:1041C000FFE705980068002818BF01200190FFE76D
:1041D0000198C00730B1FFE7059804900598006882
:1041E0000590E6E7059840F2BC41C2F2000109687B
:1041F000884263D0FFE70498006808300290059871
:10420000006804990860059840680699401A1128CA
:1042100021D3FFE705980699084403909DF80C0008
:10422000400758B1FFE74FF0500080F31188BFF30B
:104230006F8FBFF34F8F0890FFE7FEE70598406848
:104240000699401A039948600698059948600398B2
:10425000FFF7D6FB00E0FFE70598426844F6A010A0
:10426000C2F200000168891A0160006844F6A811D2
:10427000C2F20001096888420BD2FFE744F6A010A1
:10428000C2F20000006844F6A811C2F20001086002
:1042900000E0FFE744F67410C2F2000002680599DE
:1042A00048681043486005990020086044F6B4113E
:1042B000C2F2000108680130086000E0FFE700E09A
:1042C000FFE700E0FFE701F0E9FA9DF8080040078A
:1042D00058B1FFE74FF0500080F31188BFF36F8FA4
:1042E000BFF34F8F0790FFE7FEE702980AB080BD4B
:1042F00083B00290019100920298043802900299D2
:104300004FF080700860029804380290019820F005
:10431000010002990860029804380290029943F65D
:10432000E970C0F600000860029814380290009806
:1043300002990860029820380290029803B07047F2
:1043400080B58CB00A900A9888210DF10E021A23CC
:1043500000F09AF820B1FFE701208DF82F008FE0E0
:104360009DF80E009DF80F1040EA012040F2144124
:10437000C2F20001009108809DF810009DF8112004
:1043800040EA022048809DF812009DF8132040EA80
:10439000022088809DF814009DF8152040EA022034
:1043A000C8809DF816009DF8172040EA0220088179
:1043B0009DF818009DF8192040EA022048819DF8D8
:1043C0001A009DF81B2040EA022088819DF81C00FD
:1043D0009DF81D2040EA0220C8819DF81E009DF82E
:1043E0001F2040EA022008829DF820009DF821202D
:1043F00040EA022048829DF822009DF8232040EAEE
:10440000022088829DF824009DF8252040EA0220A1
:10441000C8829DF8270008760A98E1210DF107026D
:10442000072300F031F820B1FFE701208DF82F00BD
:1044300026E09DF807009DF8081040EA012040F2B0
:104440001441C2F2000148839DF8090008779DF8E5
:104450000A209DF80B0000F00F0040EA0210C8830C
:104460009DF80B009DF80C20000940EA021008841A
:104470009DF80D0081F8220000208DF82F00FFE745
:104480009DF82F000CB080BD80B584B003908DF8EE
:104490000B1001928DF803309DF80B10019A9DF8D6
:1044A00003307620FEF794F804B080BD82B001900E
:1044B00001980069009001984168806888600199BE
:1044C000486889684860009840680199884205D129
:1044D000FFE7019880680099486000E0FFE70199D4
:1044E0000020086100990868013808600098006899
:1044F00002B0704744F63810C2F2000000687047FE
:1045000081B00090009901F10800486000994FF0D7
:10451000FF308860009901F10800C860009901F13E
:104520000800086100990020086001B07047000091
:1045300081B0009000990020086101B07047000030
:1045400084B00390029102980068009000980130B6
:1045500020B9FFE703980069019010E00398083044
:104560000190FFE70198406800680099884205D8EB
:10457000FFE7FFE7019840680190F3E7FFE7019844
:1045800040680299486002984168886001980299E1
:10459000886002980199486003980299086103991C
:1045A00008680130086004B07047000083B00290D2
:1045B0000191029840680090009801994860009825
:1045C000806801998860019800998968486001981D
:1045D0000099886002980199086102990868013081
:1045E000086003B07047000082B04FF0500080F3C5
:1045F0001188BFF36F8FBFF34F8F019040F20C0013
:10460000C2F200000168013101600068012814D184
:10461000FFE74EF60450CEF200000068000658B1E5
:10462000FFE74FF0500080F31188BFF36F8FBFF3A7
:104630004F8F0090FFE7FEE7FFE702B070470000F2
:1046400082B040F20C00C2F20000006858B9FFE7E7
:104650004FF0500080F31188BFF36F8FBFF34F8F7F
:104660000090FFE7FEE740F20C00C2F20000016894
:1046700001390160006830B9FFE70020019001981E
:1046800080F31188FFE702B07047000080B586B064
:10469000039003980290039800285CD0FFE70298EB
:1046A00008380290029801900198406844F674110D
:1046B000C2F20001096808420BD1FFE74FF0500039
:1046C00080F31188BFF36F8FBFF34F8F0590FFE723
:1046D000FEE70198006858B1FFE74FF0500080F303
:1046E0001188BFF36F8FBFF34F8F0490FFE7FEE792
:1046F0000198406844F67411C2F20001096808424A
:1047000027D0FFE70198006808BBFFE744F6741064
:10471000C2F200000268019948689043486000F0C6
:10472000D3F90198426844F6A011C2F2000108686A
:10473000104408600198FFF763F944F6B811C2F21B
:10474000000108680130086001F0A8F800E0FFE708
:1047500000E0FFE7FFE706B080BD00004EF2100169
:10476000CEF20001002008604EF21802CEF20002E4
:10477000106040F20000C2F20000006844F6D3521C
:10478000C1F26202A0FB02024FF0FF3000EB921078
:104790004EF21402CEF2000210600720086070474B
:1047A00084B0EFF305800190019810281ED3FFE735
:1047B00001984EF2F031CEF20001405C8DF803001A
:1047C0009DF8030044F62C11C2F2000109788842DA
:1047D0000BDAFFE74FF0500080F31188BFF36F8FC3
:1047E000BFF34F8F0390FFE7FEE7FFE74EF60C5055
:1047F000CEF20000006800F4E06044F63011C2F22E
:104800000001096888420BD9FFE74FF0500080F3A0
:104810001188BFF36F8FBFF34F8F0290FFE7FEE762
:1048200004B0704783B00290019100200090FFE730
:10483000009807281DD8FFE7009944F6D410C2F26B
:10484000000050F8310070B9FFE70198009A44F673
:10485000D411C2F2000141F832000298009A01EB33
:10486000C201486005E0FFE7FFE7009801300090D3
:10487000DEE703B07047000080B584B0039002917A
:10488000019203980090FFF7AFFE009890F9440062
:10489000013028B9FFE70099002081F84400FFE7C4
:1048A000009890F94500013028B9FFE700990020F1
:1048B00081F84500FFE7FFF7C3FE0098806B38B929
:1048C000FFE7009824300299019A00F07BF800E09D
:1048D000FFE70098FFF7BEFB04B080BD80B584B051
:1048E0000290002001900298E0B1FFE744F64010EA
:1048F000C2F20000006858B1FFE74FF0500080F3AB
:104900001188BFF36F8FBFF34F8F0390FFE7FEE770
:1049100000F0DAF802980021FEF7D6FC00F0BEFFA6
:10492000019000E0FFE7019860B9FFE74EF60451FF
:10493000CEF200014FF080500860BFF34F8FBFF3FD
:104940006F8F00E0FFE704B080BD000081B00090F1
:1049500044F6B010C2F2000000680099086044F606
:104960004820C2F2000000680099486001B070471A
:1049700044F65421C2F20001012008607047000093
:1049800080B584B002900191029858B9FFE74FF0CA
:10499000500080F31188BFF36F8FBFF34F8F0390E8
:1049A000FFE7FEE7029840F2B041C2F20001096859
:1049B0001831FFF7C5FD01980121FEF785FC04B011
:1049C00080BD000080B584B00290019100920298F1
:1049D00058B9FFE74FF0500080F31188BFF36F8F95
:1049E000BFF34F8F0390FFE7FEE7029840F2B0411C
:1049F000C2F2000109681831FFF7D8FD009820B114
:104A0000FFE74FF0FF300190FFE701980099FEF7B4
:104A10005BFC04B080BD000080B586B044F6A411F4
:104A2000C2F20001684641600023036043F2CD708A
:104A3000C0F6000046F25071C0F60001802200F07E
:104A4000FBFC03900398012804D1FFE700F0EAFF84
:104A5000039000E0FFE70398012823D1FFE74FF020
:104A6000500080F31188BFF36F8FBFF34F8F059015
:104A700044F6AC11C2F200014FF0FF30086044F67A
:104A80001421C2F200010120086044F64821C2F25C
:104A900000010020086000F099F808B1FFE700E08D
:104AA000FFE70FE00398013058B9FFE74FF05000DF
:104AB00080F31188BFF36F8FBFF34F8F0490FFE730
:104AC000FEE7FFE706B080BD44F64011C2F20001E8
:104AD000086801300860704783B044F64010C2F2A5
:104AE0000000006838B1FFE744F65421C2F200012B
:104AF0000120086051E044F65421C2F20001002078
:104B0000086044F64810C2F2000000680190FFE718
:104B1000019800EB800140F2C840C2F2000050F85A
:104B2000210090B9FFE7019858B9FFE74FF0500016
:104B300080F31188BFF36F8FBFF34F8F0290FFE7B1
:104B4000FEE7019801380190E2E7019800EB80014F
:104B500040F2C840C2F2000000EB810000900099D2
:104B6000486840684860009948680831884205D123
:104B7000FFE70099486840684860FFE70098406890
:104B8000C06840F2B041C2F200010860019844F6EA
:104B90004811C2F200010860FFE703B0704700004F
:104BA00080B582B001908DF803108DF802209DF839
:104BB00003109DF802207620FDF7BEFD02B080BDF7
:104BC00044F6A010C2F200000068704780B586B0BD
:104BD0004EF20040CEF20000039001780491FF21D4
:104BE000017000788DF80B009DF80B0000F050006C
:104BF00044F62C11C2F20001087044F63011C2F2E2
:104C0000000107200860FFE79DF80B000006002860
:104C10000DD5FFE744F63011C2F2000108680138F3
:104C200008609DF80B0040008DF80B00ECE744F69F
:104C30003010C2F20000006803280BD0FFE74FF0ED
:104C4000500080F31188BFF36F8FBFF34F8F059033
:104C5000FFE7FEE744F63011C2F2000108680002E7
:104C60000860086800F4E060086004984EF20041B3
:104C7000CEF2000108704EF62051CEF20001086815
:104C800040F470000860086840F070400860FFF76A
:104C900065FD40F20C01C2F20001002001900860A5
:104CA000FEF782FFFFF718FFFFF79EF9019806B0A5
:104CB00080BD000080B582B04FF0500080F31188B5
:104CC000BFF36F8FBFF34F8F009000F027FC40B110
:104CD000FFE74EF60451CEF200014FF0805008601D
:104CE000FFE700200190019880F3118802B080BD99
:104CF00080B588B0069005918DF81320069858B9B4
:104D0000FFE74FF0500080F31188BFF36F8FBFF3C0
:104D10004F8F0790FFE7FEE70698059948430290FA
:104D200002985030FFF7EEF90390039890B1FFE737
:104D30000398019001985030019006980599019AC6
:104D40009DF81330DDF80CC0EE46CEF800C0FEF73B
:104D500059FD00E0FFE7039808B080BD80B584B03E
:104D60000290019102980090009858B9FFE74FF027
:104D7000500080F31188BFF36F8FBFF34F8F039004
:104D8000FFE7FEE7FFF730FC00990B68C86B0A6C81
:104D900000FB023088600099002088630099086851
:104DA000486000990B68C86B0A6C013800FB023040
:104DB000C8600099FF2081F84400009981F84500FF
:104DC0000198D0B9FFE700980069A0B1FFE700980B
:104DD000103000F0FBFC60B1FFE74EF60451CEF25C
:104DE00000014FF080500860BFF34F8FBFF36F8F0B
:104DF00000E0FFE700E0FFE708E000981030FFF771
:104E00007FFB00982430FFF77BFBFFE7FFF718FCE0
:104E1000012004B080BD000080B592B00C900B91D1
:104E20000A920993002008900C980490049858B9AD
:104E3000FFE74FF0500080F31188BFF36F8FBFF38F
:104E40004F8F1190FFE7FEE70B990020039039B9CF
:104E5000FFE70498006C002818BF01200390FFE7CB
:104E60000398C00758B1FFE74FF0500080F3118856
:104E7000BFF36F8FBFF34F8F1090FFE7FEE70999E5
:104E800000200229029007D1FFE70498C06B013887
:104E900018BF01200290FFE70298C00758B1FFE752
:104EA0004FF0500080F31188BFF36F8FBFF34F8F27
:104EB0000F90FFE7FEE700F00BFB0146002001909A
:104EC00031B9FFE70A98002818BF01200190FFE7D9
:104ED0000198C00758B1FFE74FF0500080F31188E8
:104EE000BFF36F8FBFF34F8F0E90FFE7FEE7FFE733
:104EF000FFF77AFB0498806B0499C96B884204D34E
:104F0000FFE70998022834D1FFE704980B99099A22
:104F1000FEF76CFB07900498406AA0B1FFE7049885
:104F2000243000F053FC60B1FFE74EF60451CEF29E
:104F300000014FF080500860BFF34F8FBFF36F8FB9
:104F400000E0FFE710E0079860B1FFE74EF604517C
:104F5000CEF200014FF080500860BFF34F8FBFF3D7
:104F60006F8F00E0FFE7FFE7FFF76AFB01200D907E
:104F700065E00A9828B9FFE7FFF762FB00200D9073
:104F80005DE0089830B9FFE705A8FFF7DFFC0120D6
:104F9000089000E0FFE7FFE7FFE7FFF751FBFFF7AF
:104FA00093FDFFF721FB049890F94400013028B9E4
:104FB000FFE70499002081F84400FFE7049890F986
:104FC0004500013028B9FFE70499002081F8450029
:104FD000FFE7FFF735FB05A80AA900F0C7F928BBD2
:104FE000FFE70498FEF7C8FDC8B1FFE7049810304A
:104FF0000A99FFF7C5FC0498FFF72CF800F04EFC67
:1050000060B9FFE74EF60451CEF200014FF0805038
:105010000860BFF34F8FBFF36F8FFFE705E0049881
:10502000FFF718F800F03AFCFFE707E00498FFF7F5
:1050300011F800F033FC00200D9000E058E70D98C7
:1050400012B080BD80B592B00B900A91099208937E
:105050000B980590059858B9FFE74FF0500080F382
:105060001188BFF36F8FBFF34F8F0E90FFE7FEE7FE
:105070000A990020029039B9FFE70598006C0028D2
:1050800018BF01200290FFE70298C00758B1FFE760
:105090004FF0500080F31188BFF36F8FBFF34F8F35
:1050A0000D90FFE7FEE7089900200229019007D143
:1050B000FFE70598C06B013818BF01200190FFE79A
:1050C0000198C00758B1FFE74FF0500080F31188F6
:1050D000BFF36F8FBFF34F8F0C90FFE7FEE7FFF733
:1050E0005FFBEFF311814FF0500080F31188BFF3A5
:1050F0006F8FBFF34F8F10910F9010980690059807
:10510000806B0599C96B884204D3FFE70898022891
:1051100033D1FFE7059890F845008DF81300059806
:10512000806B039005980A99089AFEF75FFA9DF93B
:1051300013000130B8B9FFE70598406A88B1FFE76E
:105140000598243000F042FB48B1FFE7099820B1F0
:10515000FFE709990120086000E0FFE700E0FFE7B2
:1051600000E0FFE706E09DF813000130059981F8A3
:105170004500FFE70120079002E000200790FFE7CD
:1051800006981190119880F31188079812B080BD8D
:1051900080B58EB00990089107920020069009987A
:1051A0000390039858B9FFE74FF0500080F311883F
:1051B000BFF36F8FBFF34F8F0D90FFE7FEE70899A6
:1051C0000020019039B9FFE70398006C002818BF50
:1051D00001200190FFE70198C00758B1FFE74FF0A9
:1051E000500080F31188BFF36F8FBFF34F8F0C9087
:1051F000FFE7FEE700F06CF901460020009031B9AE
:10520000FFE70798002818BF01200090FFE70098EB
:10521000C00758B1FFE74FF0500080F31188BFF38B
:105220006F8FBFF34F8F0B90FFE7FEE7FFE7FFF7AE
:10523000DBF90398806B0290029830B3FFE7039884
:105240000899FEF7B1F90298013803998863039829
:105250000069A0B1FFE70398103000F0B7FA60B121
:10526000FFE74EF60451CEF200014FF08050086087
:10527000BFF34F8FBFF36F8F00E0FFE700E0FFE762
:10528000FFF7DEF901200A906DE0079828B9FFE7E3
:10529000FFF7D6F900200A9065E0069830B9FFE7DD
:1052A00004A8FFF753FB0120069000E0FFE7FFE7AB
:1052B000FFE7FFF7C5F9FFF707FCFFF795F903983C
:1052C00090F94400013028B9FFE70399002081F8E4
:1052D0004400FFE7039890F94500013028B9FFE743
:1052E0000399002081F84500FFE7FFF7A9F904A81A
:1052F00007A900F03BF830BBFFE70398FEF728FC56
:10530000D0B1FFE7039824300799FFF739FB0398E2
:10531000FEF7A0FE00F0C2FA60B9FFE74EF60451B6
:10532000CEF200014FF080500860BFF34F8FBFF303
:105330006F8F00E0FFE705E00398FEF78BFE00F0BB
:10534000ADFAFFE70EE00398FEF784FE00F0A6FA40
:105350000398FEF7FDFB18B1FFE700200A9002E07A
:10536000FFE7FFE763E70A980EB080BD80B588B01D
:1053700005900491059858B9FFE74FF0500080F36D
:105380001188BFF36F8FBFF34F8F0790FFE7FEE7E2
:10539000049858B9FFE74FF0500080F31188BFF32D
:1053A0006F8FBFF34F8F0690FFE7FEE7FFF71CF903
:1053B00044F64820C2F20000006802900298059965
:1053C0004968401A019004980068013018B9FFE755
:1053D000002003902BE044F6B010C2F200000068F9
:1053E00005990968884209D0FFE70298059949683C
:1053F000884203D3FFE70120039017E00198049946
:10540000096888420BD2FFE7019A04990868801A5C
:1054100008600598FFF79AFA0020039005E00499C8
:105420000020086001200390FFE7FFE7FFE7FFF798
:1054300007F9039808B080BD70B58CB0DDF844C0A2
:10544000DDF840C00B900A91ADF826200893BDF816
:1054500026008000FEF756FE0590059880B1FFE714
:105460005C20FEF74FFE0790079820B1FFE70598F4
:105470000799086303E00598FFF708F9FFE702E0E2
:1054800000200790FFE70798D8B1FFE70B980A992B
:10549000BDF82620089BDDF840C0119C079DEE4614
:1054A0000026CEF80C60CEF80850CEF80440CEF8B6
:1054B00000C0FEF7CBF90798FDF770FF01200690BA
:1054C00003E04FF0FF300690FFE706980CB070BD88
:1054D00081B044F61420C2F20000006818B9FFE75A
:1054E000012000900DE044F64010C2F20000006878
:1054F00018B9FFE70220009002E000200090FFE7CB
:10550000FFE7009801B0704781B044F64820C2F22E
:10551000000000680090009801B0704780B586B028
:105520000020029044F64010C2F2000000680028FB
:1055300040F0CB80FFE744F64821C2F20001086842
:105540000130019001980860019858BBFFE740F2D4
:10555000B840C2F200000068006858B1FFE74FF0A1
:10556000500080F31188BFF36F8FBFF34F8F05900A
:10557000FFE7FEE740F2B842C2F200021068009076
:1055800040F2C041C2F20001086810600098086053
:1055900044F6B011C2F20001086801300860FEF75D
:1055A00073FC00E0FFE7019844F6AC11C2F2000181
:1055B0000968884268D3FFE7FFE740F2B840C2F2CB
:1055C00000000068006840B9FFE744F6AC11C2F281
:1055D00000014FF0FF30086055E040F2B840C2F2E1
:1055E00000000068C068C068049004984068039098
:1055F00001980399884207D2FFE7039844F6AC115B
:10560000C2F2000108603EE0FFE704980430FEF7B4
:105610004DFF0498806A28B1FFE704981830FEF720
:1056200045FF00E0FFE70498C06A44F64811C2F263
:1056300000010968884208D9FFE70498C06A44F667
:105640004811C2F200010860FFE70499C86A00EB44
:10565000800240F2C840C2F2000000EB8200043138
:10566000FEF7A4FF0498C06A40F2B041C2F2000104
:105670000968C96A884203D3FFE70120029000E06D
:10568000FFE7FFE799E7FFE740F2B040C2F2000012
:105690000068C06A00EB800140F2C840C2F200001E
:1056A00050F82100022803D3FFE70120029000E018
:1056B000FFE744F65420C2F20000006818B1FFE78B
:1056C0000120029000E0FFE707E044F6BC11C2F2BF
:1056D0000001086801300860FFE7029806B080BD4D
:1056E00080B586B003900398029000200190039843
:1056F000002867D0FFE7029840F2B041C2F20001F3
:10570000096888420BD0FFE74FF0500080F3118802
:10571000BFF36F8FBFF34F8F0590FFE7FEE702984F
:10572000006D58B9FFE74FF0500080F31188BFF3C8
:105730006F8FBFF34F8F0490FFE7FEE70299086D6C
:10574000013808650299C86AC96C884238D0FFE7F9
:105750000298006D90BBFFE702980430FEF7A6FEAA
:1057600008B9FFE700E0FFE70299C86CC862029938
:10577000C86AC0F1380088610298C06A44F64811CE
:10578000C2F200010968884208D9FFE70298C06A9E
:1057900044F64811C2F200010860FFE70299C86AA6
:1057A00000EB800240F2C840C2F2000000EB820031
:1057B0000431FEF7FBFE0120019000E0FFE700E06E
:1057C000FFE700E0FFE7019806B080BD80B584B038
:1057D00002900298C068C0680190019858B9FFE72C
:1057E0004FF0500080F31188BFF36F8FBFF34F8FDE
:1057F0000390FFE7FEE701981830FEF757FE44F6E6
:105800004010C2F20000006820BBFFE7019804309E
:10581000FEF74CFE0198C06A44F64811C2F200013E
:105820000968884208D9FFE70198C06A44F6481120
:10583000C2F200010860FFE70199C86A00EB80022C
:1058400040F2C840C2F2000000EB82000431FEF7D3
:10585000ADFE09E0019800F1180144F6C010C2F253
:105860000000FEF7A3FEFFE70198C06A40F2B041D6
:10587000C2F200010968C96A884208D9FFE701201D
:10588000009044F65421C2F20001086002E00020BA
:105890000090FFE7009804B080BD000080B584B0A0
:1058A00000200290019044F64010C2F2000000680F
:1058B00058B9FFE74FF0500080F31188BFF36F8FA6
:1058C000BFF34F8F0390FFE7FEE7FEF78DFE44F630
:1058D0004010C2F200000168013901600068002830
:1058E00040F09980FFE744F63810C2F200000068EB
:1058F000002800F08F80FFE7FFE744F6C010C2F2F7
:1059000000000068002842D0FFE744F6C010C2F251
:105910000000C068C068029002981830FEF7C6FD0B
:1059200002980430FEF7C2FD0298C06A44F648119E
:10593000C2F200010968884208D9FFE70298C06AEC
:1059400044F64811C2F200010860FFE70299C86AF4
:1059500000EB800240F2C840C2F2000000EB82007F
:105960000431FEF723FE0298C06A40F2B041C2F251
:1059700000010968C96A884207D3FFE744F6542149
:10598000C2F200010120086000E0FFE7B5E70298DD
:1059900018B1FFE7FEF778FAFFE744F6BC10C2F251
:1059A0000000006800900098E0B1FFE7FFE7FFF714
:1059B000B5FD38B1FFE744F65421C2F200010120E1
:1059C000086000E0FFE7009801380090FFE70098CA
:1059D0000028ECD1FFE744F6BC11C2F20001002020
:1059E000086000E0FFE744F65420C2F200000068BF
:1059F00070B1FFE7012001904EF60451CEF2000194
:105A00004FF080500860BFF34F8FBFF36F8F00E0FF
:105A1000FFE7FFE700E0FFE7FEF712FE019804B0A2
:105A200080BD000080B584B000200290FDF748FDE5
:105A300044F64C20C2F200000068B8B1FFE744F61B
:105A40005020C2F20000694648600220086044F21B
:105A50003500C0F6000046F25A71C0F600014FF45E
:105A600080720023FFF7E8FC029000E0FFE7029855
:105A700058B9FFE74FF0500080F31188BFF36F8FE4
:105A8000BFF34F8F0390FFE7FEE7029804B080BD9D
:105A900080B58AB0DDF830C0089007910692059372
:105AA00000200490089858B9FFE74FF0500080F3A9
:105AB0001188BFF36F8FBFF34F8F0990FFE7FEE7A9
:105AC00044F64C20C2F200000068A8B3FFE7079834
:105AD00000900698019008980290079805281EDC0F
